{
	"contracts/InheriteContract.sol": {
		"Inherite": {
			"abi": [
				{
					"inputs": [
						{
							"internalType": "address",
							"name": "_to",
							"type": "address"
						}
					],
					"name": "deposit",
					"outputs": [],
					"stateMutability": "payable",
					"type": "function"
				},
				{
					"inputs": [
						{
							"internalType": "address",
							"name": "",
							"type": "address"
						}
					],
					"name": "inheritances",
					"outputs": [
						{
							"internalType": "uint256",
							"name": "amount",
							"type": "uint256"
						},
						{
							"internalType": "uint256",
							"name": "releaseTime",
							"type": "uint256"
						},
						{
							"internalType": "uint256",
							"name": "lastVisited",
							"type": "uint256"
						},
						{
							"internalType": "address",
							"name": "nominee",
							"type": "address"
						}
					],
					"stateMutability": "view",
					"type": "function"
				},
				{
					"inputs": [],
					"name": "ping",
					"outputs": [],
					"stateMutability": "nonpayable",
					"type": "function"
				},
				{
					"inputs": [
						{
							"internalType": "address",
							"name": "_from",
							"type": "address"
						}
					],
					"name": "pull",
					"outputs": [],
					"stateMutability": "nonpayable",
					"type": "function"
				}
			],
			"devdoc": {
				"kind": "dev",
				"methods": {},
				"version": 1
			},
			"evm": {
				"assembly": "    /* \"contracts/InheriteContract.sol\":60:2011  contract Inherite {... */\n  mstore(0x40, 0x80)\n  callvalue\n  dup1\n  iszero\n  tag_1\n  jumpi\n  0x00\n  dup1\n  revert\ntag_1:\n  pop\n  dataSize(sub_0)\n  dup1\n  dataOffset(sub_0)\n  0x00\n  codecopy\n  0x00\n  return\nstop\n\nsub_0: assembly {\n        /* \"contracts/InheriteContract.sol\":60:2011  contract Inherite {... */\n      mstore(0x40, 0x80)\n      jumpi(tag_1, lt(calldatasize, 0x04))\n      shr(0xe0, calldataload(0x00))\n      dup1\n      0x52d11238\n      eq\n      tag_2\n      jumpi\n      dup1\n      0x5c36b186\n      eq\n      tag_3\n      jumpi\n      dup1\n      0x6122fed5\n      eq\n      tag_4\n      jumpi\n      dup1\n      0xf340fa01\n      eq\n      tag_5\n      jumpi\n    tag_1:\n      0x00\n      dup1\n      revert\n        /* \"contracts/InheriteContract.sol\":1174:1705  function pull(address _from) public {... */\n    tag_2:\n      callvalue\n      dup1\n      iszero\n      tag_6\n      jumpi\n      0x00\n      dup1\n      revert\n    tag_6:\n      pop\n      tag_7\n      0x04\n      dup1\n      calldatasize\n      sub\n      dup2\n      add\n      swap1\n      tag_8\n      swap2\n      swap1\n      tag_9\n      jump\t// in\n    tag_8:\n      tag_10\n      jump\t// in\n    tag_7:\n      stop\n        /* \"contracts/InheriteContract.sol\":1713:2008  function ping() public {... */\n    tag_3:\n      callvalue\n      dup1\n      iszero\n      tag_11\n      jumpi\n      0x00\n      dup1\n      revert\n    tag_11:\n      pop\n      tag_12\n      tag_13\n      jump\t// in\n    tag_12:\n      stop\n        /* \"contracts/InheriteContract.sol\":222:273  mapping(address => Inheritance) public inheritances */\n    tag_4:\n      callvalue\n      dup1\n      iszero\n      tag_14\n      jumpi\n      0x00\n      dup1\n      revert\n    tag_14:\n      pop\n      tag_15\n      0x04\n      dup1\n      calldatasize\n      sub\n      dup2\n      add\n      swap1\n      tag_16\n      swap2\n      swap1\n      tag_9\n      jump\t// in\n    tag_16:\n      tag_17\n      jump\t// in\n    tag_15:\n      mload(0x40)\n      tag_18\n      swap5\n      swap4\n      swap3\n      swap2\n      swap1\n      tag_19\n      jump\t// in\n    tag_18:\n      mload(0x40)\n      dup1\n      swap2\n      sub\n      swap1\n      return\n        /* \"contracts/InheriteContract.sol\":282:1166  function deposit(address _to) public payable {... */\n    tag_5:\n      tag_20\n      0x04\n      dup1\n      calldatasize\n      sub\n      dup2\n      add\n      swap1\n      tag_21\n      swap2\n      swap1\n      tag_9\n      jump\t// in\n    tag_21:\n      tag_22\n      jump\t// in\n    tag_20:\n      stop\n        /* \"contracts/InheriteContract.sol\":1174:1705  function pull(address _from) public {... */\n    tag_10:\n        /* \"contracts/InheriteContract.sol\":1221:1252  Inheritance storage inheritance */\n      0x00\n        /* \"contracts/InheriteContract.sol\":1255:1267  inheritances */\n      dup1\n        /* \"contracts/InheriteContract.sol\":1255:1274  inheritances[_from] */\n      0x00\n        /* \"contracts/InheriteContract.sol\":1268:1273  _from */\n      dup4\n        /* \"contracts/InheriteContract.sol\":1255:1274  inheritances[_from] */\n      0xffffffffffffffffffffffffffffffffffffffff\n      and\n      0xffffffffffffffffffffffffffffffffffffffff\n      and\n      dup2\n      mstore\n      0x20\n      add\n      swap1\n      dup2\n      mstore\n      0x20\n      add\n      0x00\n      keccak256\n        /* \"contracts/InheriteContract.sol\":1221:1274  Inheritance storage inheritance = inheritances[_from] */\n      swap1\n      pop\n        /* \"contracts/InheriteContract.sol\":1307:1318  inheritance */\n      dup1\n        /* \"contracts/InheriteContract.sol\":1307:1326  inheritance.nominee */\n      0x03\n      add\n      0x00\n      swap1\n      sload\n      swap1\n      0x0100\n      exp\n      swap1\n      div\n      0xffffffffffffffffffffffffffffffffffffffff\n      and\n        /* \"contracts/InheriteContract.sol\":1293:1326  msg.sender == inheritance.nominee */\n      0xffffffffffffffffffffffffffffffffffffffff\n      and\n        /* \"contracts/InheriteContract.sol\":1293:1303  msg.sender */\n      caller\n        /* \"contracts/InheriteContract.sol\":1293:1326  msg.sender == inheritance.nominee */\n      0xffffffffffffffffffffffffffffffffffffffff\n      and\n      eq\n        /* \"contracts/InheriteContract.sol\":1285:1366  require(msg.sender == inheritance.nominee, \"Only the nominee can pull the funds\") */\n      tag_24\n      jumpi\n      mload(0x40)\n      0x08c379a000000000000000000000000000000000000000000000000000000000\n      dup2\n      mstore\n      0x04\n      add\n      tag_25\n      swap1\n      tag_26\n      jump\t// in\n    tag_25:\n      mload(0x40)\n      dup1\n      swap2\n      sub\n      swap1\n      revert\n    tag_24:\n        /* \"contracts/InheriteContract.sol\":1404:1415  inheritance */\n      dup1\n        /* \"contracts/InheriteContract.sol\":1404:1427  inheritance.releaseTime */\n      0x01\n      add\n      sload\n        /* \"contracts/InheriteContract.sol\":1385:1400  block.timestamp */\n      timestamp\n        /* \"contracts/InheriteContract.sol\":1385:1427  block.timestamp >= inheritance.releaseTime */\n      lt\n      iszero\n        /* \"contracts/InheriteContract.sol\":1377:1471  require(block.timestamp >= inheritance.releaseTime, \"Funds are not yet available for release\") */\n      tag_27\n      jumpi\n      mload(0x40)\n      0x08c379a000000000000000000000000000000000000000000000000000000000\n      dup2\n      mstore\n      0x04\n      add\n      tag_28\n      swap1\n      tag_29\n      jump\t// in\n    tag_28:\n      mload(0x40)\n      dup1\n      swap2\n      sub\n      swap1\n      revert\n    tag_27:\n        /* \"contracts/InheriteContract.sol\":1511:1512  0 */\n      0x00\n        /* \"contracts/InheriteContract.sol\":1490:1501  inheritance */\n      dup2\n        /* \"contracts/InheriteContract.sol\":1490:1508  inheritance.amount */\n      0x00\n      add\n      sload\n        /* \"contracts/InheriteContract.sol\":1490:1512  inheritance.amount > 0 */\n      gt\n        /* \"contracts/InheriteContract.sol\":1482:1543  require(inheritance.amount > 0, \"No funds available to pull\") */\n      tag_30\n      jumpi\n      mload(0x40)\n      0x08c379a000000000000000000000000000000000000000000000000000000000\n      dup2\n      mstore\n      0x04\n      add\n      tag_31\n      swap1\n      tag_32\n      jump\t// in\n    tag_31:\n      mload(0x40)\n      dup1\n      swap2\n      sub\n      swap1\n      revert\n    tag_30:\n        /* \"contracts/InheriteContract.sol\":1556:1567  uint amount */\n      0x00\n        /* \"contracts/InheriteContract.sol\":1570:1581  inheritance */\n      dup2\n        /* \"contracts/InheriteContract.sol\":1570:1588  inheritance.amount */\n      0x00\n      add\n      sload\n        /* \"contracts/InheriteContract.sol\":1556:1588  uint amount = inheritance.amount */\n      swap1\n      pop\n        /* \"contracts/InheriteContract.sol\":1620:1621  0 */\n      0x00\n        /* \"contracts/InheriteContract.sol\":1599:1610  inheritance */\n      dup3\n        /* \"contracts/InheriteContract.sol\":1599:1617  inheritance.amount */\n      0x00\n      add\n        /* \"contracts/InheriteContract.sol\":1599:1621  inheritance.amount = 0 */\n      dup2\n      swap1\n      sstore\n      pop\n        /* \"contracts/InheriteContract.sol\":1669:1679  msg.sender */\n      caller\n        /* \"contracts/InheriteContract.sol\":1661:1689  payable(msg.sender).transfer */\n      0xffffffffffffffffffffffffffffffffffffffff\n      and\n        /* \"contracts/InheriteContract.sol\":1661:1697  payable(msg.sender).transfer(amount) */\n      0x08fc\n        /* \"contracts/InheriteContract.sol\":1690:1696  amount */\n      dup3\n        /* \"contracts/InheriteContract.sol\":1661:1697  payable(msg.sender).transfer(amount) */\n      swap1\n      dup2\n      iszero\n      mul\n      swap1\n      mload(0x40)\n      0x00\n      mload(0x40)\n      dup1\n      dup4\n      sub\n      dup2\n      dup6\n      dup9\n      dup9\n      call\n      swap4\n      pop\n      pop\n      pop\n      pop\n      iszero\n      dup1\n      iszero\n      tag_34\n      jumpi\n      returndatasize\n      0x00\n      dup1\n      returndatacopy\n      revert(0x00, returndatasize)\n    tag_34:\n      pop\n        /* \"contracts/InheriteContract.sol\":1210:1705  {... */\n      pop\n      pop\n        /* \"contracts/InheriteContract.sol\":1174:1705  function pull(address _from) public {... */\n      pop\n      jump\t// out\n        /* \"contracts/InheriteContract.sol\":1713:2008  function ping() public {... */\n    tag_13:\n        /* \"contracts/InheriteContract.sol\":1747:1778  Inheritance storage inheritance */\n      0x00\n        /* \"contracts/InheriteContract.sol\":1781:1793  inheritances */\n      dup1\n        /* \"contracts/InheriteContract.sol\":1781:1805  inheritances[msg.sender] */\n      0x00\n        /* \"contracts/InheriteContract.sol\":1794:1804  msg.sender */\n      caller\n        /* \"contracts/InheriteContract.sol\":1781:1805  inheritances[msg.sender] */\n      0xffffffffffffffffffffffffffffffffffffffff\n      and\n      0xffffffffffffffffffffffffffffffffffffffff\n      and\n      dup2\n      mstore\n      0x20\n      add\n      swap1\n      dup2\n      mstore\n      0x20\n      add\n      0x00\n      keccak256\n        /* \"contracts/InheriteContract.sol\":1747:1805  Inheritance storage inheritance = inheritances[msg.sender] */\n      swap1\n      pop\n        /* \"contracts/InheriteContract.sol\":1845:1846  0 */\n      0x00\n        /* \"contracts/InheriteContract.sol\":1824:1835  inheritance */\n      dup2\n        /* \"contracts/InheriteContract.sol\":1824:1842  inheritance.amount */\n      0x00\n      add\n      sload\n        /* \"contracts/InheriteContract.sol\":1824:1846  inheritance.amount > 0 */\n      gt\n        /* \"contracts/InheriteContract.sol\":1816:1882  require(inheritance.amount > 0, \"No active inheritance to extend\") */\n      tag_36\n      jumpi\n      mload(0x40)\n      0x08c379a000000000000000000000000000000000000000000000000000000000\n      dup2\n      mstore\n      0x04\n      add\n      tag_37\n      swap1\n      tag_38\n      jump\t// in\n    tag_37:\n      mload(0x40)\n      dup1\n      swap2\n      sub\n      swap1\n      revert\n    tag_36:\n        /* \"contracts/InheriteContract.sol\":1939:1948  1 minutes */\n      0x3c\n        /* \"contracts/InheriteContract.sol\":1921:1936  block.timestamp */\n      timestamp\n        /* \"contracts/InheriteContract.sol\":1921:1948  block.timestamp + 1 minutes */\n      tag_39\n      swap2\n      swap1\n      tag_40\n      jump\t// in\n    tag_39:\n        /* \"contracts/InheriteContract.sol\":1895:1906  inheritance */\n      dup2\n        /* \"contracts/InheriteContract.sol\":1895:1918  inheritance.releaseTime */\n      0x01\n      add\n        /* \"contracts/InheriteContract.sol\":1895:1948  inheritance.releaseTime = block.timestamp + 1 minutes */\n      dup2\n      swap1\n      sstore\n      pop\n        /* \"contracts/InheriteContract.sol\":1985:2000  block.timestamp */\n      timestamp\n        /* \"contracts/InheriteContract.sol\":1959:1970  inheritance */\n      dup2\n        /* \"contracts/InheriteContract.sol\":1959:1982  inheritance.lastVisited */\n      0x02\n      add\n        /* \"contracts/InheriteContract.sol\":1959:2000  inheritance.lastVisited = block.timestamp */\n      dup2\n      swap1\n      sstore\n      pop\n        /* \"contracts/InheriteContract.sol\":1736:2008  {... */\n      pop\n        /* \"contracts/InheriteContract.sol\":1713:2008  function ping() public {... */\n      jump\t// out\n        /* \"contracts/InheriteContract.sol\":222:273  mapping(address => Inheritance) public inheritances */\n    tag_17:\n      mstore(0x20, 0x00)\n      dup1\n      0x00\n      mstore\n      keccak256(0x00, 0x40)\n      0x00\n      swap2\n      pop\n      swap1\n      pop\n      dup1\n      0x00\n      add\n      sload\n      swap1\n      dup1\n      0x01\n      add\n      sload\n      swap1\n      dup1\n      0x02\n      add\n      sload\n      swap1\n      dup1\n      0x03\n      add\n      0x00\n      swap1\n      sload\n      swap1\n      0x0100\n      exp\n      swap1\n      div\n      0xffffffffffffffffffffffffffffffffffffffff\n      and\n      swap1\n      pop\n      dup5\n      jump\t// out\n        /* \"contracts/InheriteContract.sol\":282:1166  function deposit(address _to) public payable {... */\n    tag_22:\n        /* \"contracts/InheriteContract.sol\":358:359  0 */\n      0x00\n        /* \"contracts/InheriteContract.sol\":346:355  msg.value */\n      callvalue\n        /* \"contracts/InheriteContract.sol\":346:359  msg.value > 0 */\n      gt\n        /* \"contracts/InheriteContract.sol\":338:393  require(msg.value > 0, \"Amount must be greater than 0\") */\n      tag_42\n      jumpi\n      mload(0x40)\n      0x08c379a000000000000000000000000000000000000000000000000000000000\n      dup2\n      mstore\n      0x04\n      add\n      tag_43\n      swap1\n      tag_44\n      jump\t// in\n    tag_43:\n      mload(0x40)\n      dup1\n      swap2\n      sub\n      swap1\n      revert\n    tag_42:\n        /* \"contracts/InheriteContract.sol\":427:428  0 */\n      0x00\n        /* \"contracts/InheriteContract.sol\":412:429  _to != address(0) */\n      0xffffffffffffffffffffffffffffffffffffffff\n      and\n        /* \"contracts/InheriteContract.sol\":412:415  _to */\n      dup2\n        /* \"contracts/InheriteContract.sol\":412:429  _to != address(0) */\n      0xffffffffffffffffffffffffffffffffffffffff\n      and\n      sub\n        /* \"contracts/InheriteContract.sol\":404:457  require(_to != address(0), \"Invalid nominee address\") */\n      tag_45\n      jumpi\n      mload(0x40)\n      0x08c379a000000000000000000000000000000000000000000000000000000000\n      dup2\n      mstore\n      0x04\n      add\n      tag_46\n      swap1\n      tag_47\n      jump\t// in\n    tag_46:\n      mload(0x40)\n      dup1\n      swap2\n      sub\n      swap1\n      revert\n    tag_45:\n        /* \"contracts/InheriteContract.sol\":470:501  Inheritance storage inheritance */\n      0x00\n        /* \"contracts/InheriteContract.sol\":504:516  inheritances */\n      dup1\n        /* \"contracts/InheriteContract.sol\":504:528  inheritances[msg.sender] */\n      0x00\n        /* \"contracts/InheriteContract.sol\":517:527  msg.sender */\n      caller\n        /* \"contracts/InheriteContract.sol\":504:528  inheritances[msg.sender] */\n      0xffffffffffffffffffffffffffffffffffffffff\n      and\n      0xffffffffffffffffffffffffffffffffffffffff\n      and\n      dup2\n      mstore\n      0x20\n      add\n      swap1\n      dup2\n      mstore\n      0x20\n      add\n      0x00\n      keccak256\n        /* \"contracts/InheriteContract.sol\":470:528  Inheritance storage inheritance = inheritances[msg.sender] */\n      swap1\n      pop\n        /* \"contracts/InheriteContract.sol\":576:577  0 */\n      0x00\n        /* \"contracts/InheriteContract.sol\":545:578  inheritance.nominee == address(0) */\n      0xffffffffffffffffffffffffffffffffffffffff\n      and\n        /* \"contracts/InheriteContract.sol\":545:556  inheritance */\n      dup2\n        /* \"contracts/InheriteContract.sol\":545:564  inheritance.nominee */\n      0x03\n      add\n      0x00\n      swap1\n      sload\n      swap1\n      0x0100\n      exp\n      swap1\n      div\n      0xffffffffffffffffffffffffffffffffffffffff\n      and\n        /* \"contracts/InheriteContract.sol\":545:578  inheritance.nominee == address(0) */\n      0xffffffffffffffffffffffffffffffffffffffff\n      and\n      sub\n        /* \"contracts/InheriteContract.sol\":541:1159  if (inheritance.nominee == address(0)) {... */\n      tag_48\n      jumpi\n        /* \"contracts/InheriteContract.sol\":673:874  Inheritance({... */\n      mload(0x40)\n      dup1\n      0x80\n      add\n      0x40\n      mstore\n      dup1\n        /* \"contracts/InheriteContract.sol\":712:721  msg.value */\n      callvalue\n        /* \"contracts/InheriteContract.sol\":673:874  Inheritance({... */\n      dup2\n      mstore\n      0x20\n      add\n        /* \"contracts/InheriteContract.sol\":771:780  1 minutes */\n      0x3c\n        /* \"contracts/InheriteContract.sol\":753:768  block.timestamp */\n      timestamp\n        /* \"contracts/InheriteContract.sol\":753:780  block.timestamp + 1 minutes */\n      tag_49\n      swap2\n      swap1\n      tag_40\n      jump\t// in\n    tag_49:\n        /* \"contracts/InheriteContract.sol\":673:874  Inheritance({... */\n      dup2\n      mstore\n      0x20\n      add\n        /* \"contracts/InheriteContract.sol\":812:827  block.timestamp */\n      timestamp\n        /* \"contracts/InheriteContract.sol\":673:874  Inheritance({... */\n      dup2\n      mstore\n      0x20\n      add\n        /* \"contracts/InheriteContract.sol\":855:858  _to */\n      dup4\n        /* \"contracts/InheriteContract.sol\":673:874  Inheritance({... */\n      0xffffffffffffffffffffffffffffffffffffffff\n      and\n      dup2\n      mstore\n      pop\n        /* \"contracts/InheriteContract.sol\":646:658  inheritances */\n      0x00\n        /* \"contracts/InheriteContract.sol\":646:670  inheritances[msg.sender] */\n      dup1\n        /* \"contracts/InheriteContract.sol\":659:669  msg.sender */\n      caller\n        /* \"contracts/InheriteContract.sol\":646:670  inheritances[msg.sender] */\n      0xffffffffffffffffffffffffffffffffffffffff\n      and\n      0xffffffffffffffffffffffffffffffffffffffff\n      and\n      dup2\n      mstore\n      0x20\n      add\n      swap1\n      dup2\n      mstore\n      0x20\n      add\n      0x00\n      keccak256\n        /* \"contracts/InheriteContract.sol\":646:874  inheritances[msg.sender] = Inheritance({... */\n      0x00\n      dup3\n      add\n      mload\n      dup2\n      0x00\n      add\n      sstore\n      0x20\n      dup3\n      add\n      mload\n      dup2\n      0x01\n      add\n      sstore\n      0x40\n      dup3\n      add\n      mload\n      dup2\n      0x02\n      add\n      sstore\n      0x60\n      dup3\n      add\n      mload\n      dup2\n      0x03\n      add\n      exp(0x0100, 0x00)\n      dup2\n      sload\n      dup2\n      0xffffffffffffffffffffffffffffffffffffffff\n      mul\n      not\n      and\n      swap1\n      dup4\n      0xffffffffffffffffffffffffffffffffffffffff\n      and\n      mul\n      or\n      swap1\n      sstore\n      pop\n      swap1\n      pop\n      pop\n        /* \"contracts/InheriteContract.sol\":541:1159  if (inheritance.nominee == address(0)) {... */\n      jump(tag_50)\n    tag_48:\n        /* \"contracts/InheriteContract.sol\":982:985  _to */\n      dup2\n        /* \"contracts/InheriteContract.sol\":959:985  inheritance.nominee == _to */\n      0xffffffffffffffffffffffffffffffffffffffff\n      and\n        /* \"contracts/InheriteContract.sol\":959:970  inheritance */\n      dup2\n        /* \"contracts/InheriteContract.sol\":959:978  inheritance.nominee */\n      0x03\n      add\n      0x00\n      swap1\n      sload\n      swap1\n      0x0100\n      exp\n      swap1\n      div\n      0xffffffffffffffffffffffffffffffffffffffff\n      and\n        /* \"contracts/InheriteContract.sol\":959:985  inheritance.nominee == _to */\n      0xffffffffffffffffffffffffffffffffffffffff\n      and\n      eq\n        /* \"contracts/InheriteContract.sol\":951:1014  require(inheritance.nominee == _to, \"Nominee address mismatch\") */\n      tag_51\n      jumpi\n      mload(0x40)\n      0x08c379a000000000000000000000000000000000000000000000000000000000\n      dup2\n      mstore\n      0x04\n      add\n      tag_52\n      swap1\n      tag_53\n      jump\t// in\n    tag_52:\n      mload(0x40)\n      dup1\n      swap2\n      sub\n      swap1\n      revert\n    tag_51:\n        /* \"contracts/InheriteContract.sol\":1051:1060  msg.value */\n      callvalue\n        /* \"contracts/InheriteContract.sol\":1029:1040  inheritance */\n      dup2\n        /* \"contracts/InheriteContract.sol\":1029:1047  inheritance.amount */\n      0x00\n      add\n      0x00\n        /* \"contracts/InheriteContract.sol\":1029:1060  inheritance.amount += msg.value */\n      dup3\n      dup3\n      sload\n      tag_54\n      swap2\n      swap1\n      tag_40\n      jump\t// in\n    tag_54:\n      swap3\n      pop\n      pop\n      dup2\n      swap1\n      sstore\n      pop\n        /* \"contracts/InheriteContract.sol\":1119:1128  1 minutes */\n      0x3c\n        /* \"contracts/InheriteContract.sol\":1101:1116  block.timestamp */\n      timestamp\n        /* \"contracts/InheriteContract.sol\":1101:1128  block.timestamp + 1 minutes */\n      tag_55\n      swap2\n      swap1\n      tag_40\n      jump\t// in\n    tag_55:\n        /* \"contracts/InheriteContract.sol\":1075:1086  inheritance */\n      dup2\n        /* \"contracts/InheriteContract.sol\":1075:1098  inheritance.releaseTime */\n      0x01\n      add\n        /* \"contracts/InheriteContract.sol\":1075:1128  inheritance.releaseTime = block.timestamp + 1 minutes */\n      dup2\n      swap1\n      sstore\n      pop\n        /* \"contracts/InheriteContract.sol\":541:1159  if (inheritance.nominee == address(0)) {... */\n    tag_50:\n        /* \"contracts/InheriteContract.sol\":327:1166  {... */\n      pop\n        /* \"contracts/InheriteContract.sol\":282:1166  function deposit(address _to) public payable {... */\n      pop\n      jump\t// out\n        /* \"#utility.yul\":88:205   */\n    tag_57:\n        /* \"#utility.yul\":197:198   */\n      0x00\n        /* \"#utility.yul\":194:195   */\n      dup1\n        /* \"#utility.yul\":187:199   */\n      revert\n        /* \"#utility.yul\":334:460   */\n    tag_59:\n        /* \"#utility.yul\":371:378   */\n      0x00\n        /* \"#utility.yul\":411:453   */\n      0xffffffffffffffffffffffffffffffffffffffff\n        /* \"#utility.yul\":404:409   */\n      dup3\n        /* \"#utility.yul\":400:454   */\n      and\n        /* \"#utility.yul\":389:454   */\n      swap1\n      pop\n        /* \"#utility.yul\":334:460   */\n      swap2\n      swap1\n      pop\n      jump\t// out\n        /* \"#utility.yul\":466:562   */\n    tag_60:\n        /* \"#utility.yul\":503:510   */\n      0x00\n        /* \"#utility.yul\":532:556   */\n      tag_88\n        /* \"#utility.yul\":550:555   */\n      dup3\n        /* \"#utility.yul\":532:556   */\n      tag_59\n      jump\t// in\n    tag_88:\n        /* \"#utility.yul\":521:556   */\n      swap1\n      pop\n        /* \"#utility.yul\":466:562   */\n      swap2\n      swap1\n      pop\n      jump\t// out\n        /* \"#utility.yul\":568:690   */\n    tag_61:\n        /* \"#utility.yul\":641:665   */\n      tag_90\n        /* \"#utility.yul\":659:664   */\n      dup2\n        /* \"#utility.yul\":641:665   */\n      tag_60\n      jump\t// in\n    tag_90:\n        /* \"#utility.yul\":634:639   */\n      dup2\n        /* \"#utility.yul\":631:666   */\n      eq\n        /* \"#utility.yul\":621:684   */\n      tag_91\n      jumpi\n        /* \"#utility.yul\":680:681   */\n      0x00\n        /* \"#utility.yul\":677:678   */\n      dup1\n        /* \"#utility.yul\":670:682   */\n      revert\n        /* \"#utility.yul\":621:684   */\n    tag_91:\n        /* \"#utility.yul\":568:690   */\n      pop\n      jump\t// out\n        /* \"#utility.yul\":696:835   */\n    tag_62:\n        /* \"#utility.yul\":742:747   */\n      0x00\n        /* \"#utility.yul\":780:786   */\n      dup2\n        /* \"#utility.yul\":767:787   */\n      calldataload\n        /* \"#utility.yul\":758:787   */\n      swap1\n      pop\n        /* \"#utility.yul\":796:829   */\n      tag_93\n        /* \"#utility.yul\":823:828   */\n      dup2\n        /* \"#utility.yul\":796:829   */\n      tag_61\n      jump\t// in\n    tag_93:\n        /* \"#utility.yul\":696:835   */\n      swap3\n      swap2\n      pop\n      pop\n      jump\t// out\n        /* \"#utility.yul\":841:1170   */\n    tag_9:\n        /* \"#utility.yul\":900:906   */\n      0x00\n        /* \"#utility.yul\":949:951   */\n      0x20\n        /* \"#utility.yul\":937:946   */\n      dup3\n        /* \"#utility.yul\":928:935   */\n      dup5\n        /* \"#utility.yul\":924:947   */\n      sub\n        /* \"#utility.yul\":920:952   */\n      slt\n        /* \"#utility.yul\":917:1036   */\n      iszero\n      tag_95\n      jumpi\n        /* \"#utility.yul\":955:1034   */\n      tag_96\n      tag_57\n      jump\t// in\n    tag_96:\n        /* \"#utility.yul\":917:1036   */\n    tag_95:\n        /* \"#utility.yul\":1075:1076   */\n      0x00\n        /* \"#utility.yul\":1100:1153   */\n      tag_97\n        /* \"#utility.yul\":1145:1152   */\n      dup5\n        /* \"#utility.yul\":1136:1142   */\n      dup3\n        /* \"#utility.yul\":1125:1134   */\n      dup6\n        /* \"#utility.yul\":1121:1143   */\n      add\n        /* \"#utility.yul\":1100:1153   */\n      tag_62\n      jump\t// in\n    tag_97:\n        /* \"#utility.yul\":1090:1153   */\n      swap2\n      pop\n        /* \"#utility.yul\":1046:1163   */\n      pop\n        /* \"#utility.yul\":841:1170   */\n      swap3\n      swap2\n      pop\n      pop\n      jump\t// out\n        /* \"#utility.yul\":1176:1253   */\n    tag_63:\n        /* \"#utility.yul\":1213:1220   */\n      0x00\n        /* \"#utility.yul\":1242:1247   */\n      dup2\n        /* \"#utility.yul\":1231:1247   */\n      swap1\n      pop\n        /* \"#utility.yul\":1176:1253   */\n      swap2\n      swap1\n      pop\n      jump\t// out\n        /* \"#utility.yul\":1259:1377   */\n    tag_64:\n        /* \"#utility.yul\":1346:1370   */\n      tag_100\n        /* \"#utility.yul\":1364:1369   */\n      dup2\n        /* \"#utility.yul\":1346:1370   */\n      tag_63\n      jump\t// in\n    tag_100:\n        /* \"#utility.yul\":1341:1344   */\n      dup3\n        /* \"#utility.yul\":1334:1371   */\n      mstore\n        /* \"#utility.yul\":1259:1377   */\n      pop\n      pop\n      jump\t// out\n        /* \"#utility.yul\":1383:1501   */\n    tag_65:\n        /* \"#utility.yul\":1470:1494   */\n      tag_102\n        /* \"#utility.yul\":1488:1493   */\n      dup2\n        /* \"#utility.yul\":1470:1494   */\n      tag_60\n      jump\t// in\n    tag_102:\n        /* \"#utility.yul\":1465:1468   */\n      dup3\n        /* \"#utility.yul\":1458:1495   */\n      mstore\n        /* \"#utility.yul\":1383:1501   */\n      pop\n      pop\n      jump\t// out\n        /* \"#utility.yul\":1507:2060   */\n    tag_19:\n        /* \"#utility.yul\":1684:1688   */\n      0x00\n        /* \"#utility.yul\":1722:1725   */\n      0x80\n        /* \"#utility.yul\":1711:1720   */\n      dup3\n        /* \"#utility.yul\":1707:1726   */\n      add\n        /* \"#utility.yul\":1699:1726   */\n      swap1\n      pop\n        /* \"#utility.yul\":1736:1807   */\n      tag_104\n        /* \"#utility.yul\":1804:1805   */\n      0x00\n        /* \"#utility.yul\":1793:1802   */\n      dup4\n        /* \"#utility.yul\":1789:1806   */\n      add\n        /* \"#utility.yul\":1780:1786   */\n      dup8\n        /* \"#utility.yul\":1736:1807   */\n      tag_64\n      jump\t// in\n    tag_104:\n        /* \"#utility.yul\":1817:1889   */\n      tag_105\n        /* \"#utility.yul\":1885:1887   */\n      0x20\n        /* \"#utility.yul\":1874:1883   */\n      dup4\n        /* \"#utility.yul\":1870:1888   */\n      add\n        /* \"#utility.yul\":1861:1867   */\n      dup7\n        /* \"#utility.yul\":1817:1889   */\n      tag_64\n      jump\t// in\n    tag_105:\n        /* \"#utility.yul\":1899:1971   */\n      tag_106\n        /* \"#utility.yul\":1967:1969   */\n      0x40\n        /* \"#utility.yul\":1956:1965   */\n      dup4\n        /* \"#utility.yul\":1952:1970   */\n      add\n        /* \"#utility.yul\":1943:1949   */\n      dup6\n        /* \"#utility.yul\":1899:1971   */\n      tag_64\n      jump\t// in\n    tag_106:\n        /* \"#utility.yul\":1981:2053   */\n      tag_107\n        /* \"#utility.yul\":2049:2051   */\n      0x60\n        /* \"#utility.yul\":2038:2047   */\n      dup4\n        /* \"#utility.yul\":2034:2052   */\n      add\n        /* \"#utility.yul\":2025:2031   */\n      dup5\n        /* \"#utility.yul\":1981:2053   */\n      tag_65\n      jump\t// in\n    tag_107:\n        /* \"#utility.yul\":1507:2060   */\n      swap6\n      swap5\n      pop\n      pop\n      pop\n      pop\n      pop\n      jump\t// out\n        /* \"#utility.yul\":2066:2235   */\n    tag_66:\n        /* \"#utility.yul\":2150:2161   */\n      0x00\n        /* \"#utility.yul\":2184:2190   */\n      dup3\n        /* \"#utility.yul\":2179:2182   */\n      dup3\n        /* \"#utility.yul\":2172:2191   */\n      mstore\n        /* \"#utility.yul\":2224:2228   */\n      0x20\n        /* \"#utility.yul\":2219:2222   */\n      dup3\n        /* \"#utility.yul\":2215:2229   */\n      add\n        /* \"#utility.yul\":2200:2229   */\n      swap1\n      pop\n        /* \"#utility.yul\":2066:2235   */\n      swap3\n      swap2\n      pop\n      pop\n      jump\t// out\n        /* \"#utility.yul\":2241:2463   */\n    tag_67:\n        /* \"#utility.yul\":2381:2415   */\n      0x4f6e6c7920746865206e6f6d696e65652063616e2070756c6c20746865206675\n        /* \"#utility.yul\":2377:2378   */\n      0x00\n        /* \"#utility.yul\":2369:2375   */\n      dup3\n        /* \"#utility.yul\":2365:2379   */\n      add\n        /* \"#utility.yul\":2358:2416   */\n      mstore\n        /* \"#utility.yul\":2450:2455   */\n      0x6e64730000000000000000000000000000000000000000000000000000000000\n        /* \"#utility.yul\":2445:2447   */\n      0x20\n        /* \"#utility.yul\":2437:2443   */\n      dup3\n        /* \"#utility.yul\":2433:2448   */\n      add\n        /* \"#utility.yul\":2426:2456   */\n      mstore\n        /* \"#utility.yul\":2241:2463   */\n      pop\n      jump\t// out\n        /* \"#utility.yul\":2469:2835   */\n    tag_68:\n        /* \"#utility.yul\":2611:2614   */\n      0x00\n        /* \"#utility.yul\":2632:2699   */\n      tag_111\n        /* \"#utility.yul\":2696:2698   */\n      0x23\n        /* \"#utility.yul\":2691:2694   */\n      dup4\n        /* \"#utility.yul\":2632:2699   */\n      tag_66\n      jump\t// in\n    tag_111:\n        /* \"#utility.yul\":2625:2699   */\n      swap2\n      pop\n        /* \"#utility.yul\":2708:2801   */\n      tag_112\n        /* \"#utility.yul\":2797:2800   */\n      dup3\n        /* \"#utility.yul\":2708:2801   */\n      tag_67\n      jump\t// in\n    tag_112:\n        /* \"#utility.yul\":2826:2828   */\n      0x40\n        /* \"#utility.yul\":2821:2824   */\n      dup3\n        /* \"#utility.yul\":2817:2829   */\n      add\n        /* \"#utility.yul\":2810:2829   */\n      swap1\n      pop\n        /* \"#utility.yul\":2469:2835   */\n      swap2\n      swap1\n      pop\n      jump\t// out\n        /* \"#utility.yul\":2841:3260   */\n    tag_26:\n        /* \"#utility.yul\":3007:3011   */\n      0x00\n        /* \"#utility.yul\":3045:3047   */\n      0x20\n        /* \"#utility.yul\":3034:3043   */\n      dup3\n        /* \"#utility.yul\":3030:3048   */\n      add\n        /* \"#utility.yul\":3022:3048   */\n      swap1\n      pop\n        /* \"#utility.yul\":3094:3103   */\n      dup2\n        /* \"#utility.yul\":3088:3092   */\n      dup2\n        /* \"#utility.yul\":3084:3104   */\n      sub\n        /* \"#utility.yul\":3080:3081   */\n      0x00\n        /* \"#utility.yul\":3069:3078   */\n      dup4\n        /* \"#utility.yul\":3065:3082   */\n      add\n        /* \"#utility.yul\":3058:3105   */\n      mstore\n        /* \"#utility.yul\":3122:3253   */\n      tag_114\n        /* \"#utility.yul\":3248:3252   */\n      dup2\n        /* \"#utility.yul\":3122:3253   */\n      tag_68\n      jump\t// in\n    tag_114:\n        /* \"#utility.yul\":3114:3253   */\n      swap1\n      pop\n        /* \"#utility.yul\":2841:3260   */\n      swap2\n      swap1\n      pop\n      jump\t// out\n        /* \"#utility.yul\":3266:3492   */\n    tag_69:\n        /* \"#utility.yul\":3406:3440   */\n      0x46756e647320617265206e6f742079657420617661696c61626c6520666f7220\n        /* \"#utility.yul\":3402:3403   */\n      0x00\n        /* \"#utility.yul\":3394:3400   */\n      dup3\n        /* \"#utility.yul\":3390:3404   */\n      add\n        /* \"#utility.yul\":3383:3441   */\n      mstore\n        /* \"#utility.yul\":3475:3484   */\n      0x72656c6561736500000000000000000000000000000000000000000000000000\n        /* \"#utility.yul\":3470:3472   */\n      0x20\n        /* \"#utility.yul\":3462:3468   */\n      dup3\n        /* \"#utility.yul\":3458:3473   */\n      add\n        /* \"#utility.yul\":3451:3485   */\n      mstore\n        /* \"#utility.yul\":3266:3492   */\n      pop\n      jump\t// out\n        /* \"#utility.yul\":3498:3864   */\n    tag_70:\n        /* \"#utility.yul\":3640:3643   */\n      0x00\n        /* \"#utility.yul\":3661:3728   */\n      tag_117\n        /* \"#utility.yul\":3725:3727   */\n      0x27\n        /* \"#utility.yul\":3720:3723   */\n      dup4\n        /* \"#utility.yul\":3661:3728   */\n      tag_66\n      jump\t// in\n    tag_117:\n        /* \"#utility.yul\":3654:3728   */\n      swap2\n      pop\n        /* \"#utility.yul\":3737:3830   */\n      tag_118\n        /* \"#utility.yul\":3826:3829   */\n      dup3\n        /* \"#utility.yul\":3737:3830   */\n      tag_69\n      jump\t// in\n    tag_118:\n        /* \"#utility.yul\":3855:3857   */\n      0x40\n        /* \"#utility.yul\":3850:3853   */\n      dup3\n        /* \"#utility.yul\":3846:3858   */\n      add\n        /* \"#utility.yul\":3839:3858   */\n      swap1\n      pop\n        /* \"#utility.yul\":3498:3864   */\n      swap2\n      swap1\n      pop\n      jump\t// out\n        /* \"#utility.yul\":3870:4289   */\n    tag_29:\n        /* \"#utility.yul\":4036:4040   */\n      0x00\n        /* \"#utility.yul\":4074:4076   */\n      0x20\n        /* \"#utility.yul\":4063:4072   */\n      dup3\n        /* \"#utility.yul\":4059:4077   */\n      add\n        /* \"#utility.yul\":4051:4077   */\n      swap1\n      pop\n        /* \"#utility.yul\":4123:4132   */\n      dup2\n        /* \"#utility.yul\":4117:4121   */\n      dup2\n        /* \"#utility.yul\":4113:4133   */\n      sub\n        /* \"#utility.yul\":4109:4110   */\n      0x00\n        /* \"#utility.yul\":4098:4107   */\n      dup4\n        /* \"#utility.yul\":4094:4111   */\n      add\n        /* \"#utility.yul\":4087:4134   */\n      mstore\n        /* \"#utility.yul\":4151:4282   */\n      tag_120\n        /* \"#utility.yul\":4277:4281   */\n      dup2\n        /* \"#utility.yul\":4151:4282   */\n      tag_70\n      jump\t// in\n    tag_120:\n        /* \"#utility.yul\":4143:4282   */\n      swap1\n      pop\n        /* \"#utility.yul\":3870:4289   */\n      swap2\n      swap1\n      pop\n      jump\t// out\n        /* \"#utility.yul\":4295:4471   */\n    tag_71:\n        /* \"#utility.yul\":4435:4463   */\n      0x4e6f2066756e647320617661696c61626c6520746f2070756c6c000000000000\n        /* \"#utility.yul\":4431:4432   */\n      0x00\n        /* \"#utility.yul\":4423:4429   */\n      dup3\n        /* \"#utility.yul\":4419:4433   */\n      add\n        /* \"#utility.yul\":4412:4464   */\n      mstore\n        /* \"#utility.yul\":4295:4471   */\n      pop\n      jump\t// out\n        /* \"#utility.yul\":4477:4843   */\n    tag_72:\n        /* \"#utility.yul\":4619:4622   */\n      0x00\n        /* \"#utility.yul\":4640:4707   */\n      tag_123\n        /* \"#utility.yul\":4704:4706   */\n      0x1a\n        /* \"#utility.yul\":4699:4702   */\n      dup4\n        /* \"#utility.yul\":4640:4707   */\n      tag_66\n      jump\t// in\n    tag_123:\n        /* \"#utility.yul\":4633:4707   */\n      swap2\n      pop\n        /* \"#utility.yul\":4716:4809   */\n      tag_124\n        /* \"#utility.yul\":4805:4808   */\n      dup3\n        /* \"#utility.yul\":4716:4809   */\n      tag_71\n      jump\t// in\n    tag_124:\n        /* \"#utility.yul\":4834:4836   */\n      0x20\n        /* \"#utility.yul\":4829:4832   */\n      dup3\n        /* \"#utility.yul\":4825:4837   */\n      add\n        /* \"#utility.yul\":4818:4837   */\n      swap1\n      pop\n        /* \"#utility.yul\":4477:4843   */\n      swap2\n      swap1\n      pop\n      jump\t// out\n        /* \"#utility.yul\":4849:5268   */\n    tag_32:\n        /* \"#utility.yul\":5015:5019   */\n      0x00\n        /* \"#utility.yul\":5053:5055   */\n      0x20\n        /* \"#utility.yul\":5042:5051   */\n      dup3\n        /* \"#utility.yul\":5038:5056   */\n      add\n        /* \"#utility.yul\":5030:5056   */\n      swap1\n      pop\n        /* \"#utility.yul\":5102:5111   */\n      dup2\n        /* \"#utility.yul\":5096:5100   */\n      dup2\n        /* \"#utility.yul\":5092:5112   */\n      sub\n        /* \"#utility.yul\":5088:5089   */\n      0x00\n        /* \"#utility.yul\":5077:5086   */\n      dup4\n        /* \"#utility.yul\":5073:5090   */\n      add\n        /* \"#utility.yul\":5066:5113   */\n      mstore\n        /* \"#utility.yul\":5130:5261   */\n      tag_126\n        /* \"#utility.yul\":5256:5260   */\n      dup2\n        /* \"#utility.yul\":5130:5261   */\n      tag_72\n      jump\t// in\n    tag_126:\n        /* \"#utility.yul\":5122:5261   */\n      swap1\n      pop\n        /* \"#utility.yul\":4849:5268   */\n      swap2\n      swap1\n      pop\n      jump\t// out\n        /* \"#utility.yul\":5274:5455   */\n    tag_73:\n        /* \"#utility.yul\":5414:5447   */\n      0x4e6f2061637469766520696e6865726974616e636520746f20657874656e6400\n        /* \"#utility.yul\":5410:5411   */\n      0x00\n        /* \"#utility.yul\":5402:5408   */\n      dup3\n        /* \"#utility.yul\":5398:5412   */\n      add\n        /* \"#utility.yul\":5391:5448   */\n      mstore\n        /* \"#utility.yul\":5274:5455   */\n      pop\n      jump\t// out\n        /* \"#utility.yul\":5461:5827   */\n    tag_74:\n        /* \"#utility.yul\":5603:5606   */\n      0x00\n        /* \"#utility.yul\":5624:5691   */\n      tag_129\n        /* \"#utility.yul\":5688:5690   */\n      0x1f\n        /* \"#utility.yul\":5683:5686   */\n      dup4\n        /* \"#utility.yul\":5624:5691   */\n      tag_66\n      jump\t// in\n    tag_129:\n        /* \"#utility.yul\":5617:5691   */\n      swap2\n      pop\n        /* \"#utility.yul\":5700:5793   */\n      tag_130\n        /* \"#utility.yul\":5789:5792   */\n      dup3\n        /* \"#utility.yul\":5700:5793   */\n      tag_73\n      jump\t// in\n    tag_130:\n        /* \"#utility.yul\":5818:5820   */\n      0x20\n        /* \"#utility.yul\":5813:5816   */\n      dup3\n        /* \"#utility.yul\":5809:5821   */\n      add\n        /* \"#utility.yul\":5802:5821   */\n      swap1\n      pop\n        /* \"#utility.yul\":5461:5827   */\n      swap2\n      swap1\n      pop\n      jump\t// out\n        /* \"#utility.yul\":5833:6252   */\n    tag_38:\n        /* \"#utility.yul\":5999:6003   */\n      0x00\n        /* \"#utility.yul\":6037:6039   */\n      0x20\n        /* \"#utility.yul\":6026:6035   */\n      dup3\n        /* \"#utility.yul\":6022:6040   */\n      add\n        /* \"#utility.yul\":6014:6040   */\n      swap1\n      pop\n        /* \"#utility.yul\":6086:6095   */\n      dup2\n        /* \"#utility.yul\":6080:6084   */\n      dup2\n        /* \"#utility.yul\":6076:6096   */\n      sub\n        /* \"#utility.yul\":6072:6073   */\n      0x00\n        /* \"#utility.yul\":6061:6070   */\n      dup4\n        /* \"#utility.yul\":6057:6074   */\n      add\n        /* \"#utility.yul\":6050:6097   */\n      mstore\n        /* \"#utility.yul\":6114:6245   */\n      tag_132\n        /* \"#utility.yul\":6240:6244   */\n      dup2\n        /* \"#utility.yul\":6114:6245   */\n      tag_74\n      jump\t// in\n    tag_132:\n        /* \"#utility.yul\":6106:6245   */\n      swap1\n      pop\n        /* \"#utility.yul\":5833:6252   */\n      swap2\n      swap1\n      pop\n      jump\t// out\n        /* \"#utility.yul\":6258:6438   */\n    tag_75:\n        /* \"#utility.yul\":6306:6383   */\n      0x4e487b7100000000000000000000000000000000000000000000000000000000\n        /* \"#utility.yul\":6303:6304   */\n      0x00\n        /* \"#utility.yul\":6296:6384   */\n      mstore\n        /* \"#utility.yul\":6403:6407   */\n      0x11\n        /* \"#utility.yul\":6400:6401   */\n      0x04\n        /* \"#utility.yul\":6393:6408   */\n      mstore\n        /* \"#utility.yul\":6427:6431   */\n      0x24\n        /* \"#utility.yul\":6424:6425   */\n      0x00\n        /* \"#utility.yul\":6417:6432   */\n      revert\n        /* \"#utility.yul\":6444:6635   */\n    tag_40:\n        /* \"#utility.yul\":6484:6487   */\n      0x00\n        /* \"#utility.yul\":6503:6523   */\n      tag_135\n        /* \"#utility.yul\":6521:6522   */\n      dup3\n        /* \"#utility.yul\":6503:6523   */\n      tag_63\n      jump\t// in\n    tag_135:\n        /* \"#utility.yul\":6498:6523   */\n      swap2\n      pop\n        /* \"#utility.yul\":6537:6557   */\n      tag_136\n        /* \"#utility.yul\":6555:6556   */\n      dup4\n        /* \"#utility.yul\":6537:6557   */\n      tag_63\n      jump\t// in\n    tag_136:\n        /* \"#utility.yul\":6532:6557   */\n      swap3\n      pop\n        /* \"#utility.yul\":6580:6581   */\n      dup3\n        /* \"#utility.yul\":6577:6578   */\n      dup3\n        /* \"#utility.yul\":6573:6582   */\n      add\n        /* \"#utility.yul\":6566:6582   */\n      swap1\n      pop\n        /* \"#utility.yul\":6601:6604   */\n      dup1\n        /* \"#utility.yul\":6598:6599   */\n      dup3\n        /* \"#utility.yul\":6595:6605   */\n      gt\n        /* \"#utility.yul\":6592:6628   */\n      iszero\n      tag_137\n      jumpi\n        /* \"#utility.yul\":6608:6626   */\n      tag_138\n      tag_75\n      jump\t// in\n    tag_138:\n        /* \"#utility.yul\":6592:6628   */\n    tag_137:\n        /* \"#utility.yul\":6444:6635   */\n      swap3\n      swap2\n      pop\n      pop\n      jump\t// out\n        /* \"#utility.yul\":6641:6820   */\n    tag_76:\n        /* \"#utility.yul\":6781:6812   */\n      0x416d6f756e74206d7573742062652067726561746572207468616e2030000000\n        /* \"#utility.yul\":6777:6778   */\n      0x00\n        /* \"#utility.yul\":6769:6775   */\n      dup3\n        /* \"#utility.yul\":6765:6779   */\n      add\n        /* \"#utility.yul\":6758:6813   */\n      mstore\n        /* \"#utility.yul\":6641:6820   */\n      pop\n      jump\t// out\n        /* \"#utility.yul\":6826:7192   */\n    tag_77:\n        /* \"#utility.yul\":6968:6971   */\n      0x00\n        /* \"#utility.yul\":6989:7056   */\n      tag_141\n        /* \"#utility.yul\":7053:7055   */\n      0x1d\n        /* \"#utility.yul\":7048:7051   */\n      dup4\n        /* \"#utility.yul\":6989:7056   */\n      tag_66\n      jump\t// in\n    tag_141:\n        /* \"#utility.yul\":6982:7056   */\n      swap2\n      pop\n        /* \"#utility.yul\":7065:7158   */\n      tag_142\n        /* \"#utility.yul\":7154:7157   */\n      dup3\n        /* \"#utility.yul\":7065:7158   */\n      tag_76\n      jump\t// in\n    tag_142:\n        /* \"#utility.yul\":7183:7185   */\n      0x20\n        /* \"#utility.yul\":7178:7181   */\n      dup3\n        /* \"#utility.yul\":7174:7186   */\n      add\n        /* \"#utility.yul\":7167:7186   */\n      swap1\n      pop\n        /* \"#utility.yul\":6826:7192   */\n      swap2\n      swap1\n      pop\n      jump\t// out\n        /* \"#utility.yul\":7198:7617   */\n    tag_44:\n        /* \"#utility.yul\":7364:7368   */\n      0x00\n        /* \"#utility.yul\":7402:7404   */\n      0x20\n        /* \"#utility.yul\":7391:7400   */\n      dup3\n        /* \"#utility.yul\":7387:7405   */\n      add\n        /* \"#utility.yul\":7379:7405   */\n      swap1\n      pop\n        /* \"#utility.yul\":7451:7460   */\n      dup2\n        /* \"#utility.yul\":7445:7449   */\n      dup2\n        /* \"#utility.yul\":7441:7461   */\n      sub\n        /* \"#utility.yul\":7437:7438   */\n      0x00\n        /* \"#utility.yul\":7426:7435   */\n      dup4\n        /* \"#utility.yul\":7422:7439   */\n      add\n        /* \"#utility.yul\":7415:7462   */\n      mstore\n        /* \"#utility.yul\":7479:7610   */\n      tag_144\n        /* \"#utility.yul\":7605:7609   */\n      dup2\n        /* \"#utility.yul\":7479:7610   */\n      tag_77\n      jump\t// in\n    tag_144:\n        /* \"#utility.yul\":7471:7610   */\n      swap1\n      pop\n        /* \"#utility.yul\":7198:7617   */\n      swap2\n      swap1\n      pop\n      jump\t// out\n        /* \"#utility.yul\":7623:7796   */\n    tag_78:\n        /* \"#utility.yul\":7763:7788   */\n      0x496e76616c6964206e6f6d696e65652061646472657373000000000000000000\n        /* \"#utility.yul\":7759:7760   */\n      0x00\n        /* \"#utility.yul\":7751:7757   */\n      dup3\n        /* \"#utility.yul\":7747:7761   */\n      add\n        /* \"#utility.yul\":7740:7789   */\n      mstore\n        /* \"#utility.yul\":7623:7796   */\n      pop\n      jump\t// out\n        /* \"#utility.yul\":7802:8168   */\n    tag_79:\n        /* \"#utility.yul\":7944:7947   */\n      0x00\n        /* \"#utility.yul\":7965:8032   */\n      tag_147\n        /* \"#utility.yul\":8029:8031   */\n      0x17\n        /* \"#utility.yul\":8024:8027   */\n      dup4\n        /* \"#utility.yul\":7965:8032   */\n      tag_66\n      jump\t// in\n    tag_147:\n        /* \"#utility.yul\":7958:8032   */\n      swap2\n      pop\n        /* \"#utility.yul\":8041:8134   */\n      tag_148\n        /* \"#utility.yul\":8130:8133   */\n      dup3\n        /* \"#utility.yul\":8041:8134   */\n      tag_78\n      jump\t// in\n    tag_148:\n        /* \"#utility.yul\":8159:8161   */\n      0x20\n        /* \"#utility.yul\":8154:8157   */\n      dup3\n        /* \"#utility.yul\":8150:8162   */\n      add\n        /* \"#utility.yul\":8143:8162   */\n      swap1\n      pop\n        /* \"#utility.yul\":7802:8168   */\n      swap2\n      swap1\n      pop\n      jump\t// out\n        /* \"#utility.yul\":8174:8593   */\n    tag_47:\n        /* \"#utility.yul\":8340:8344   */\n      0x00\n        /* \"#utility.yul\":8378:8380   */\n      0x20\n        /* \"#utility.yul\":8367:8376   */\n      dup3\n        /* \"#utility.yul\":8363:8381   */\n      add\n        /* \"#utility.yul\":8355:8381   */\n      swap1\n      pop\n        /* \"#utility.yul\":8427:8436   */\n      dup2\n        /* \"#utility.yul\":8421:8425   */\n      dup2\n        /* \"#utility.yul\":8417:8437   */\n      sub\n        /* \"#utility.yul\":8413:8414   */\n      0x00\n        /* \"#utility.yul\":8402:8411   */\n      dup4\n        /* \"#utility.yul\":8398:8415   */\n      add\n        /* \"#utility.yul\":8391:8438   */\n      mstore\n        /* \"#utility.yul\":8455:8586   */\n      tag_150\n        /* \"#utility.yul\":8581:8585   */\n      dup2\n        /* \"#utility.yul\":8455:8586   */\n      tag_79\n      jump\t// in\n    tag_150:\n        /* \"#utility.yul\":8447:8586   */\n      swap1\n      pop\n        /* \"#utility.yul\":8174:8593   */\n      swap2\n      swap1\n      pop\n      jump\t// out\n        /* \"#utility.yul\":8599:8773   */\n    tag_80:\n        /* \"#utility.yul\":8739:8765   */\n      0x4e6f6d696e65652061646472657373206d69736d617463680000000000000000\n        /* \"#utility.yul\":8735:8736   */\n      0x00\n        /* \"#utility.yul\":8727:8733   */\n      dup3\n        /* \"#utility.yul\":8723:8737   */\n      add\n        /* \"#utility.yul\":8716:8766   */\n      mstore\n        /* \"#utility.yul\":8599:8773   */\n      pop\n      jump\t// out\n        /* \"#utility.yul\":8779:9145   */\n    tag_81:\n        /* \"#utility.yul\":8921:8924   */\n      0x00\n        /* \"#utility.yul\":8942:9009   */\n      tag_153\n        /* \"#utility.yul\":9006:9008   */\n      0x18\n        /* \"#utility.yul\":9001:9004   */\n      dup4\n        /* \"#utility.yul\":8942:9009   */\n      tag_66\n      jump\t// in\n    tag_153:\n        /* \"#utility.yul\":8935:9009   */\n      swap2\n      pop\n        /* \"#utility.yul\":9018:9111   */\n      tag_154\n        /* \"#utility.yul\":9107:9110   */\n      dup3\n        /* \"#utility.yul\":9018:9111   */\n      tag_80\n      jump\t// in\n    tag_154:\n        /* \"#utility.yul\":9136:9138   */\n      0x20\n        /* \"#utility.yul\":9131:9134   */\n      dup3\n        /* \"#utility.yul\":9127:9139   */\n      add\n        /* \"#utility.yul\":9120:9139   */\n      swap1\n      pop\n        /* \"#utility.yul\":8779:9145   */\n      swap2\n      swap1\n      pop\n      jump\t// out\n        /* \"#utility.yul\":9151:9570   */\n    tag_53:\n        /* \"#utility.yul\":9317:9321   */\n      0x00\n        /* \"#utility.yul\":9355:9357   */\n      0x20\n        /* \"#utility.yul\":9344:9353   */\n      dup3\n        /* \"#utility.yul\":9340:9358   */\n      add\n        /* \"#utility.yul\":9332:9358   */\n      swap1\n      pop\n        /* \"#utility.yul\":9404:9413   */\n      dup2\n        /* \"#utility.yul\":9398:9402   */\n      dup2\n        /* \"#utility.yul\":9394:9414   */\n      sub\n        /* \"#utility.yul\":9390:9391   */\n      0x00\n        /* \"#utility.yul\":9379:9388   */\n      dup4\n        /* \"#utility.yul\":9375:9392   */\n      add\n        /* \"#utility.yul\":9368:9415   */\n      mstore\n        /* \"#utility.yul\":9432:9563   */\n      tag_156\n        /* \"#utility.yul\":9558:9562   */\n      dup2\n        /* \"#utility.yul\":9432:9563   */\n      tag_81\n      jump\t// in\n    tag_156:\n        /* \"#utility.yul\":9424:9563   */\n      swap1\n      pop\n        /* \"#utility.yul\":9151:9570   */\n      swap2\n      swap1\n      pop\n      jump\t// out\n\n    auxdata: 0xa26469706673582212203b63cdd53effb19f500dfac11e96ffe6b90526b05abc9144216789162567661d64736f6c634300081a0033\n}\n",
				"bytecode": {
					"linkReferences": {},
					"object": "6080604052348015600e575f80fd5b50610b2d8061001c5f395ff3fe60806040526004361061003e575f3560e01c806352d11238146100425780635c36b1861461006a5780636122fed514610080578063f340fa01146100bf575b5f80fd5b34801561004d575f80fd5b50610068600480360381019061006391906106ce565b6100db565b005b348015610075575f80fd5b5061007e61028f565b005b34801561008b575f80fd5b506100a660048036038101906100a191906106ce565b610334565b6040516100b69493929190610720565b60405180910390f35b6100d960048036038101906100d491906106ce565b61037e565b005b5f805f8373ffffffffffffffffffffffffffffffffffffffff1673ffffffffffffffffffffffffffffffffffffffff1681526020019081526020015f209050806003015f9054906101000a900473ffffffffffffffffffffffffffffffffffffffff1673ffffffffffffffffffffffffffffffffffffffff163373ffffffffffffffffffffffffffffffffffffffff16146101ab576040517f08c379a00000000000000000000000000000000000000000000000000000000081526004016101a2906107e3565b60405180910390fd5b80600101544210156101f2576040517f08c379a00000000000000000000000000000000000000000000000000000000081526004016101e990610871565b60405180910390fd5b5f815f015411610237576040517f08c379a000000000000000000000000000000000000000000000000000000000815260040161022e906108d9565b60405180910390fd5b5f815f015490505f825f01819055503373ffffffffffffffffffffffffffffffffffffffff166108fc8290811502906040515f60405180830381858888f19350505050158015610289573d5f803e3d5ffd5b50505050565b5f805f3373ffffffffffffffffffffffffffffffffffffffff1673ffffffffffffffffffffffffffffffffffffffff1681526020019081526020015f2090505f815f015411610313576040517f08c379a000000000000000000000000000000000000000000000000000000000815260040161030a90610941565b60405180910390fd5b603c42610320919061098c565b816001018190555042816002018190555050565b5f602052805f5260405f205f91509050805f015490806001015490806002015490806003015f9054906101000a900473ffffffffffffffffffffffffffffffffffffffff16905084565b5f34116103c0576040517f08c379a00000000000000000000000000000000000000000000000000000000081526004016103b790610a09565b60405180910390fd5b5f73ffffffffffffffffffffffffffffffffffffffff168173ffffffffffffffffffffffffffffffffffffffff160361042e576040517f08c379a000000000000000000000000000000000000000000000000000000000815260040161042590610a71565b60405180910390fd5b5f805f3373ffffffffffffffffffffffffffffffffffffffff1673ffffffffffffffffffffffffffffffffffffffff1681526020019081526020015f2090505f73ffffffffffffffffffffffffffffffffffffffff16816003015f9054906101000a900473ffffffffffffffffffffffffffffffffffffffff1673ffffffffffffffffffffffffffffffffffffffff16036105ac576040518060800160405280348152602001603c426104e1919061098c565b81526020014281526020018373ffffffffffffffffffffffffffffffffffffffff168152505f803373ffffffffffffffffffffffffffffffffffffffff1673ffffffffffffffffffffffffffffffffffffffff1681526020019081526020015f205f820151815f015560208201518160010155604082015181600201556060820151816003015f6101000a81548173ffffffffffffffffffffffffffffffffffffffff021916908373ffffffffffffffffffffffffffffffffffffffff16021790555090505061066c565b8173ffffffffffffffffffffffffffffffffffffffff16816003015f9054906101000a900473ffffffffffffffffffffffffffffffffffffffff1673ffffffffffffffffffffffffffffffffffffffff161461063d576040517f08c379a000000000000000000000000000000000000000000000000000000000815260040161063490610ad9565b60405180910390fd5b34815f015f82825461064f919061098c565b92505081905550603c42610663919061098c565b81600101819055505b5050565b5f80fd5b5f73ffffffffffffffffffffffffffffffffffffffff82169050919050565b5f61069d82610674565b9050919050565b6106ad81610693565b81146106b7575f80fd5b50565b5f813590506106c8816106a4565b92915050565b5f602082840312156106e3576106e2610670565b5b5f6106f0848285016106ba565b91505092915050565b5f819050919050565b61070b816106f9565b82525050565b61071a81610693565b82525050565b5f6080820190506107335f830187610702565b6107406020830186610702565b61074d6040830185610702565b61075a6060830184610711565b95945050505050565b5f82825260208201905092915050565b7f4f6e6c7920746865206e6f6d696e65652063616e2070756c6c207468652066755f8201527f6e64730000000000000000000000000000000000000000000000000000000000602082015250565b5f6107cd602383610763565b91506107d882610773565b604082019050919050565b5f6020820190508181035f8301526107fa816107c1565b9050919050565b7f46756e647320617265206e6f742079657420617661696c61626c6520666f72205f8201527f72656c6561736500000000000000000000000000000000000000000000000000602082015250565b5f61085b602783610763565b915061086682610801565b604082019050919050565b5f6020820190508181035f8301526108888161084f565b9050919050565b7f4e6f2066756e647320617661696c61626c6520746f2070756c6c0000000000005f82015250565b5f6108c3601a83610763565b91506108ce8261088f565b602082019050919050565b5f6020820190508181035f8301526108f0816108b7565b9050919050565b7f4e6f2061637469766520696e6865726974616e636520746f20657874656e64005f82015250565b5f61092b601f83610763565b9150610936826108f7565b602082019050919050565b5f6020820190508181035f8301526109588161091f565b9050919050565b7f4e487b71000000000000000000000000000000000000000000000000000000005f52601160045260245ffd5b5f610996826106f9565b91506109a1836106f9565b92508282019050808211156109b9576109b861095f565b5b92915050565b7f416d6f756e74206d7573742062652067726561746572207468616e20300000005f82015250565b5f6109f3601d83610763565b91506109fe826109bf565b602082019050919050565b5f6020820190508181035f830152610a20816109e7565b9050919050565b7f496e76616c6964206e6f6d696e656520616464726573730000000000000000005f82015250565b5f610a5b601783610763565b9150610a6682610a27565b602082019050919050565b5f6020820190508181035f830152610a8881610a4f565b9050919050565b7f4e6f6d696e65652061646472657373206d69736d6174636800000000000000005f82015250565b5f610ac3601883610763565b9150610ace82610a8f565b602082019050919050565b5f6020820190508181035f830152610af081610ab7565b905091905056fea26469706673582212203b63cdd53effb19f500dfac11e96ffe6b90526b05abc9144216789162567661d64736f6c634300081a0033",
					"opcodes": "PUSH1 0x80 PUSH1 0x40 MSTORE CALLVALUE DUP1 ISZERO PUSH1 0xE JUMPI PUSH0 DUP1 REVERT JUMPDEST POP PUSH2 0xB2D DUP1 PUSH2 0x1C PUSH0 CODECOPY PUSH0 RETURN INVALID PUSH1 0x80 PUSH1 0x40 MSTORE PUSH1 0x4 CALLDATASIZE LT PUSH2 0x3E JUMPI PUSH0 CALLDATALOAD PUSH1 0xE0 SHR DUP1 PUSH4 0x52D11238 EQ PUSH2 0x42 JUMPI DUP1 PUSH4 0x5C36B186 EQ PUSH2 0x6A JUMPI DUP1 PUSH4 0x6122FED5 EQ PUSH2 0x80 JUMPI DUP1 PUSH4 0xF340FA01 EQ PUSH2 0xBF JUMPI JUMPDEST PUSH0 DUP1 REVERT JUMPDEST CALLVALUE DUP1 ISZERO PUSH2 0x4D JUMPI PUSH0 DUP1 REVERT JUMPDEST POP PUSH2 0x68 PUSH1 0x4 DUP1 CALLDATASIZE SUB DUP2 ADD SWAP1 PUSH2 0x63 SWAP2 SWAP1 PUSH2 0x6CE JUMP JUMPDEST PUSH2 0xDB JUMP JUMPDEST STOP JUMPDEST CALLVALUE DUP1 ISZERO PUSH2 0x75 JUMPI PUSH0 DUP1 REVERT JUMPDEST POP PUSH2 0x7E PUSH2 0x28F JUMP JUMPDEST STOP JUMPDEST CALLVALUE DUP1 ISZERO PUSH2 0x8B JUMPI PUSH0 DUP1 REVERT JUMPDEST POP PUSH2 0xA6 PUSH1 0x4 DUP1 CALLDATASIZE SUB DUP2 ADD SWAP1 PUSH2 0xA1 SWAP2 SWAP1 PUSH2 0x6CE JUMP JUMPDEST PUSH2 0x334 JUMP JUMPDEST PUSH1 0x40 MLOAD PUSH2 0xB6 SWAP5 SWAP4 SWAP3 SWAP2 SWAP1 PUSH2 0x720 JUMP JUMPDEST PUSH1 0x40 MLOAD DUP1 SWAP2 SUB SWAP1 RETURN JUMPDEST PUSH2 0xD9 PUSH1 0x4 DUP1 CALLDATASIZE SUB DUP2 ADD SWAP1 PUSH2 0xD4 SWAP2 SWAP1 PUSH2 0x6CE JUMP JUMPDEST PUSH2 0x37E JUMP JUMPDEST STOP JUMPDEST PUSH0 DUP1 PUSH0 DUP4 PUSH20 0xFFFFFFFFFFFFFFFFFFFFFFFFFFFFFFFFFFFFFFFF AND PUSH20 0xFFFFFFFFFFFFFFFFFFFFFFFFFFFFFFFFFFFFFFFF AND DUP2 MSTORE PUSH1 0x20 ADD SWAP1 DUP2 MSTORE PUSH1 0x20 ADD PUSH0 KECCAK256 SWAP1 POP DUP1 PUSH1 0x3 ADD PUSH0 SWAP1 SLOAD SWAP1 PUSH2 0x100 EXP SWAP1 DIV PUSH20 0xFFFFFFFFFFFFFFFFFFFFFFFFFFFFFFFFFFFFFFFF AND PUSH20 0xFFFFFFFFFFFFFFFFFFFFFFFFFFFFFFFFFFFFFFFF AND CALLER PUSH20 0xFFFFFFFFFFFFFFFFFFFFFFFFFFFFFFFFFFFFFFFF AND EQ PUSH2 0x1AB JUMPI PUSH1 0x40 MLOAD PUSH32 0x8C379A000000000000000000000000000000000000000000000000000000000 DUP2 MSTORE PUSH1 0x4 ADD PUSH2 0x1A2 SWAP1 PUSH2 0x7E3 JUMP JUMPDEST PUSH1 0x40 MLOAD DUP1 SWAP2 SUB SWAP1 REVERT JUMPDEST DUP1 PUSH1 0x1 ADD SLOAD TIMESTAMP LT ISZERO PUSH2 0x1F2 JUMPI PUSH1 0x40 MLOAD PUSH32 0x8C379A000000000000000000000000000000000000000000000000000000000 DUP2 MSTORE PUSH1 0x4 ADD PUSH2 0x1E9 SWAP1 PUSH2 0x871 JUMP JUMPDEST PUSH1 0x40 MLOAD DUP1 SWAP2 SUB SWAP1 REVERT JUMPDEST PUSH0 DUP2 PUSH0 ADD SLOAD GT PUSH2 0x237 JUMPI PUSH1 0x40 MLOAD PUSH32 0x8C379A000000000000000000000000000000000000000000000000000000000 DUP2 MSTORE PUSH1 0x4 ADD PUSH2 0x22E SWAP1 PUSH2 0x8D9 JUMP JUMPDEST PUSH1 0x40 MLOAD DUP1 SWAP2 SUB SWAP1 REVERT JUMPDEST PUSH0 DUP2 PUSH0 ADD SLOAD SWAP1 POP PUSH0 DUP3 PUSH0 ADD DUP2 SWAP1 SSTORE POP CALLER PUSH20 0xFFFFFFFFFFFFFFFFFFFFFFFFFFFFFFFFFFFFFFFF AND PUSH2 0x8FC DUP3 SWAP1 DUP2 ISZERO MUL SWAP1 PUSH1 0x40 MLOAD PUSH0 PUSH1 0x40 MLOAD DUP1 DUP4 SUB DUP2 DUP6 DUP9 DUP9 CALL SWAP4 POP POP POP POP ISZERO DUP1 ISZERO PUSH2 0x289 JUMPI RETURNDATASIZE PUSH0 DUP1 RETURNDATACOPY RETURNDATASIZE PUSH0 REVERT JUMPDEST POP POP POP POP JUMP JUMPDEST PUSH0 DUP1 PUSH0 CALLER PUSH20 0xFFFFFFFFFFFFFFFFFFFFFFFFFFFFFFFFFFFFFFFF AND PUSH20 0xFFFFFFFFFFFFFFFFFFFFFFFFFFFFFFFFFFFFFFFF AND DUP2 MSTORE PUSH1 0x20 ADD SWAP1 DUP2 MSTORE PUSH1 0x20 ADD PUSH0 KECCAK256 SWAP1 POP PUSH0 DUP2 PUSH0 ADD SLOAD GT PUSH2 0x313 JUMPI PUSH1 0x40 MLOAD PUSH32 0x8C379A000000000000000000000000000000000000000000000000000000000 DUP2 MSTORE PUSH1 0x4 ADD PUSH2 0x30A SWAP1 PUSH2 0x941 JUMP JUMPDEST PUSH1 0x40 MLOAD DUP1 SWAP2 SUB SWAP1 REVERT JUMPDEST PUSH1 0x3C TIMESTAMP PUSH2 0x320 SWAP2 SWAP1 PUSH2 0x98C JUMP JUMPDEST DUP2 PUSH1 0x1 ADD DUP2 SWAP1 SSTORE POP TIMESTAMP DUP2 PUSH1 0x2 ADD DUP2 SWAP1 SSTORE POP POP JUMP JUMPDEST PUSH0 PUSH1 0x20 MSTORE DUP1 PUSH0 MSTORE PUSH1 0x40 PUSH0 KECCAK256 PUSH0 SWAP2 POP SWAP1 POP DUP1 PUSH0 ADD SLOAD SWAP1 DUP1 PUSH1 0x1 ADD SLOAD SWAP1 DUP1 PUSH1 0x2 ADD SLOAD SWAP1 DUP1 PUSH1 0x3 ADD PUSH0 SWAP1 SLOAD SWAP1 PUSH2 0x100 EXP SWAP1 DIV PUSH20 0xFFFFFFFFFFFFFFFFFFFFFFFFFFFFFFFFFFFFFFFF AND SWAP1 POP DUP5 JUMP JUMPDEST PUSH0 CALLVALUE GT PUSH2 0x3C0 JUMPI PUSH1 0x40 MLOAD PUSH32 0x8C379A000000000000000000000000000000000000000000000000000000000 DUP2 MSTORE PUSH1 0x4 ADD PUSH2 0x3B7 SWAP1 PUSH2 0xA09 JUMP JUMPDEST PUSH1 0x40 MLOAD DUP1 SWAP2 SUB SWAP1 REVERT JUMPDEST PUSH0 PUSH20 0xFFFFFFFFFFFFFFFFFFFFFFFFFFFFFFFFFFFFFFFF AND DUP2 PUSH20 0xFFFFFFFFFFFFFFFFFFFFFFFFFFFFFFFFFFFFFFFF AND SUB PUSH2 0x42E JUMPI PUSH1 0x40 MLOAD PUSH32 0x8C379A000000000000000000000000000000000000000000000000000000000 DUP2 MSTORE PUSH1 0x4 ADD PUSH2 0x425 SWAP1 PUSH2 0xA71 JUMP JUMPDEST PUSH1 0x40 MLOAD DUP1 SWAP2 SUB SWAP1 REVERT JUMPDEST PUSH0 DUP1 PUSH0 CALLER PUSH20 0xFFFFFFFFFFFFFFFFFFFFFFFFFFFFFFFFFFFFFFFF AND PUSH20 0xFFFFFFFFFFFFFFFFFFFFFFFFFFFFFFFFFFFFFFFF AND DUP2 MSTORE PUSH1 0x20 ADD SWAP1 DUP2 MSTORE PUSH1 0x20 ADD PUSH0 KECCAK256 SWAP1 POP PUSH0 PUSH20 0xFFFFFFFFFFFFFFFFFFFFFFFFFFFFFFFFFFFFFFFF AND DUP2 PUSH1 0x3 ADD PUSH0 SWAP1 SLOAD SWAP1 PUSH2 0x100 EXP SWAP1 DIV PUSH20 0xFFFFFFFFFFFFFFFFFFFFFFFFFFFFFFFFFFFFFFFF AND PUSH20 0xFFFFFFFFFFFFFFFFFFFFFFFFFFFFFFFFFFFFFFFF AND SUB PUSH2 0x5AC JUMPI PUSH1 0x40 MLOAD DUP1 PUSH1 0x80 ADD PUSH1 0x40 MSTORE DUP1 CALLVALUE DUP2 MSTORE PUSH1 0x20 ADD PUSH1 0x3C TIMESTAMP PUSH2 0x4E1 SWAP2 SWAP1 PUSH2 0x98C JUMP JUMPDEST DUP2 MSTORE PUSH1 0x20 ADD TIMESTAMP DUP2 MSTORE PUSH1 0x20 ADD DUP4 PUSH20 0xFFFFFFFFFFFFFFFFFFFFFFFFFFFFFFFFFFFFFFFF AND DUP2 MSTORE POP PUSH0 DUP1 CALLER PUSH20 0xFFFFFFFFFFFFFFFFFFFFFFFFFFFFFFFFFFFFFFFF AND PUSH20 0xFFFFFFFFFFFFFFFFFFFFFFFFFFFFFFFFFFFFFFFF AND DUP2 MSTORE PUSH1 0x20 ADD SWAP1 DUP2 MSTORE PUSH1 0x20 ADD PUSH0 KECCAK256 PUSH0 DUP3 ADD MLOAD DUP2 PUSH0 ADD SSTORE PUSH1 0x20 DUP3 ADD MLOAD DUP2 PUSH1 0x1 ADD SSTORE PUSH1 0x40 DUP3 ADD MLOAD DUP2 PUSH1 0x2 ADD SSTORE PUSH1 0x60 DUP3 ADD MLOAD DUP2 PUSH1 0x3 ADD PUSH0 PUSH2 0x100 EXP DUP2 SLOAD DUP2 PUSH20 0xFFFFFFFFFFFFFFFFFFFFFFFFFFFFFFFFFFFFFFFF MUL NOT AND SWAP1 DUP4 PUSH20 0xFFFFFFFFFFFFFFFFFFFFFFFFFFFFFFFFFFFFFFFF AND MUL OR SWAP1 SSTORE POP SWAP1 POP POP PUSH2 0x66C JUMP JUMPDEST DUP2 PUSH20 0xFFFFFFFFFFFFFFFFFFFFFFFFFFFFFFFFFFFFFFFF AND DUP2 PUSH1 0x3 ADD PUSH0 SWAP1 SLOAD SWAP1 PUSH2 0x100 EXP SWAP1 DIV PUSH20 0xFFFFFFFFFFFFFFFFFFFFFFFFFFFFFFFFFFFFFFFF AND PUSH20 0xFFFFFFFFFFFFFFFFFFFFFFFFFFFFFFFFFFFFFFFF AND EQ PUSH2 0x63D JUMPI PUSH1 0x40 MLOAD PUSH32 0x8C379A000000000000000000000000000000000000000000000000000000000 DUP2 MSTORE PUSH1 0x4 ADD PUSH2 0x634 SWAP1 PUSH2 0xAD9 JUMP JUMPDEST PUSH1 0x40 MLOAD DUP1 SWAP2 SUB SWAP1 REVERT JUMPDEST CALLVALUE DUP2 PUSH0 ADD PUSH0 DUP3 DUP3 SLOAD PUSH2 0x64F SWAP2 SWAP1 PUSH2 0x98C JUMP JUMPDEST SWAP3 POP POP DUP2 SWAP1 SSTORE POP PUSH1 0x3C TIMESTAMP PUSH2 0x663 SWAP2 SWAP1 PUSH2 0x98C JUMP JUMPDEST DUP2 PUSH1 0x1 ADD DUP2 SWAP1 SSTORE POP JUMPDEST POP POP JUMP JUMPDEST PUSH0 DUP1 REVERT JUMPDEST PUSH0 PUSH20 0xFFFFFFFFFFFFFFFFFFFFFFFFFFFFFFFFFFFFFFFF DUP3 AND SWAP1 POP SWAP2 SWAP1 POP JUMP JUMPDEST PUSH0 PUSH2 0x69D DUP3 PUSH2 0x674 JUMP JUMPDEST SWAP1 POP SWAP2 SWAP1 POP JUMP JUMPDEST PUSH2 0x6AD DUP2 PUSH2 0x693 JUMP JUMPDEST DUP2 EQ PUSH2 0x6B7 JUMPI PUSH0 DUP1 REVERT JUMPDEST POP JUMP JUMPDEST PUSH0 DUP2 CALLDATALOAD SWAP1 POP PUSH2 0x6C8 DUP2 PUSH2 0x6A4 JUMP JUMPDEST SWAP3 SWAP2 POP POP JUMP JUMPDEST PUSH0 PUSH1 0x20 DUP3 DUP5 SUB SLT ISZERO PUSH2 0x6E3 JUMPI PUSH2 0x6E2 PUSH2 0x670 JUMP JUMPDEST JUMPDEST PUSH0 PUSH2 0x6F0 DUP5 DUP3 DUP6 ADD PUSH2 0x6BA JUMP JUMPDEST SWAP2 POP POP SWAP3 SWAP2 POP POP JUMP JUMPDEST PUSH0 DUP2 SWAP1 POP SWAP2 SWAP1 POP JUMP JUMPDEST PUSH2 0x70B DUP2 PUSH2 0x6F9 JUMP JUMPDEST DUP3 MSTORE POP POP JUMP JUMPDEST PUSH2 0x71A DUP2 PUSH2 0x693 JUMP JUMPDEST DUP3 MSTORE POP POP JUMP JUMPDEST PUSH0 PUSH1 0x80 DUP3 ADD SWAP1 POP PUSH2 0x733 PUSH0 DUP4 ADD DUP8 PUSH2 0x702 JUMP JUMPDEST PUSH2 0x740 PUSH1 0x20 DUP4 ADD DUP7 PUSH2 0x702 JUMP JUMPDEST PUSH2 0x74D PUSH1 0x40 DUP4 ADD DUP6 PUSH2 0x702 JUMP JUMPDEST PUSH2 0x75A PUSH1 0x60 DUP4 ADD DUP5 PUSH2 0x711 JUMP JUMPDEST SWAP6 SWAP5 POP POP POP POP POP JUMP JUMPDEST PUSH0 DUP3 DUP3 MSTORE PUSH1 0x20 DUP3 ADD SWAP1 POP SWAP3 SWAP2 POP POP JUMP JUMPDEST PUSH32 0x4F6E6C7920746865206E6F6D696E65652063616E2070756C6C20746865206675 PUSH0 DUP3 ADD MSTORE PUSH32 0x6E64730000000000000000000000000000000000000000000000000000000000 PUSH1 0x20 DUP3 ADD MSTORE POP JUMP JUMPDEST PUSH0 PUSH2 0x7CD PUSH1 0x23 DUP4 PUSH2 0x763 JUMP JUMPDEST SWAP2 POP PUSH2 0x7D8 DUP3 PUSH2 0x773 JUMP JUMPDEST PUSH1 0x40 DUP3 ADD SWAP1 POP SWAP2 SWAP1 POP JUMP JUMPDEST PUSH0 PUSH1 0x20 DUP3 ADD SWAP1 POP DUP2 DUP2 SUB PUSH0 DUP4 ADD MSTORE PUSH2 0x7FA DUP2 PUSH2 0x7C1 JUMP JUMPDEST SWAP1 POP SWAP2 SWAP1 POP JUMP JUMPDEST PUSH32 0x46756E647320617265206E6F742079657420617661696C61626C6520666F7220 PUSH0 DUP3 ADD MSTORE PUSH32 0x72656C6561736500000000000000000000000000000000000000000000000000 PUSH1 0x20 DUP3 ADD MSTORE POP JUMP JUMPDEST PUSH0 PUSH2 0x85B PUSH1 0x27 DUP4 PUSH2 0x763 JUMP JUMPDEST SWAP2 POP PUSH2 0x866 DUP3 PUSH2 0x801 JUMP JUMPDEST PUSH1 0x40 DUP3 ADD SWAP1 POP SWAP2 SWAP1 POP JUMP JUMPDEST PUSH0 PUSH1 0x20 DUP3 ADD SWAP1 POP DUP2 DUP2 SUB PUSH0 DUP4 ADD MSTORE PUSH2 0x888 DUP2 PUSH2 0x84F JUMP JUMPDEST SWAP1 POP SWAP2 SWAP1 POP JUMP JUMPDEST PUSH32 0x4E6F2066756E647320617661696C61626C6520746F2070756C6C000000000000 PUSH0 DUP3 ADD MSTORE POP JUMP JUMPDEST PUSH0 PUSH2 0x8C3 PUSH1 0x1A DUP4 PUSH2 0x763 JUMP JUMPDEST SWAP2 POP PUSH2 0x8CE DUP3 PUSH2 0x88F JUMP JUMPDEST PUSH1 0x20 DUP3 ADD SWAP1 POP SWAP2 SWAP1 POP JUMP JUMPDEST PUSH0 PUSH1 0x20 DUP3 ADD SWAP1 POP DUP2 DUP2 SUB PUSH0 DUP4 ADD MSTORE PUSH2 0x8F0 DUP2 PUSH2 0x8B7 JUMP JUMPDEST SWAP1 POP SWAP2 SWAP1 POP JUMP JUMPDEST PUSH32 0x4E6F2061637469766520696E6865726974616E636520746F20657874656E6400 PUSH0 DUP3 ADD MSTORE POP JUMP JUMPDEST PUSH0 PUSH2 0x92B PUSH1 0x1F DUP4 PUSH2 0x763 JUMP JUMPDEST SWAP2 POP PUSH2 0x936 DUP3 PUSH2 0x8F7 JUMP JUMPDEST PUSH1 0x20 DUP3 ADD SWAP1 POP SWAP2 SWAP1 POP JUMP JUMPDEST PUSH0 PUSH1 0x20 DUP3 ADD SWAP1 POP DUP2 DUP2 SUB PUSH0 DUP4 ADD MSTORE PUSH2 0x958 DUP2 PUSH2 0x91F JUMP JUMPDEST SWAP1 POP SWAP2 SWAP1 POP JUMP JUMPDEST PUSH32 0x4E487B7100000000000000000000000000000000000000000000000000000000 PUSH0 MSTORE PUSH1 0x11 PUSH1 0x4 MSTORE PUSH1 0x24 PUSH0 REVERT JUMPDEST PUSH0 PUSH2 0x996 DUP3 PUSH2 0x6F9 JUMP JUMPDEST SWAP2 POP PUSH2 0x9A1 DUP4 PUSH2 0x6F9 JUMP JUMPDEST SWAP3 POP DUP3 DUP3 ADD SWAP1 POP DUP1 DUP3 GT ISZERO PUSH2 0x9B9 JUMPI PUSH2 0x9B8 PUSH2 0x95F JUMP JUMPDEST JUMPDEST SWAP3 SWAP2 POP POP JUMP JUMPDEST PUSH32 0x416D6F756E74206D7573742062652067726561746572207468616E2030000000 PUSH0 DUP3 ADD MSTORE POP JUMP JUMPDEST PUSH0 PUSH2 0x9F3 PUSH1 0x1D DUP4 PUSH2 0x763 JUMP JUMPDEST SWAP2 POP PUSH2 0x9FE DUP3 PUSH2 0x9BF JUMP JUMPDEST PUSH1 0x20 DUP3 ADD SWAP1 POP SWAP2 SWAP1 POP JUMP JUMPDEST PUSH0 PUSH1 0x20 DUP3 ADD SWAP1 POP DUP2 DUP2 SUB PUSH0 DUP4 ADD MSTORE PUSH2 0xA20 DUP2 PUSH2 0x9E7 JUMP JUMPDEST SWAP1 POP SWAP2 SWAP1 POP JUMP JUMPDEST PUSH32 0x496E76616C6964206E6F6D696E65652061646472657373000000000000000000 PUSH0 DUP3 ADD MSTORE POP JUMP JUMPDEST PUSH0 PUSH2 0xA5B PUSH1 0x17 DUP4 PUSH2 0x763 JUMP JUMPDEST SWAP2 POP PUSH2 0xA66 DUP3 PUSH2 0xA27 JUMP JUMPDEST PUSH1 0x20 DUP3 ADD SWAP1 POP SWAP2 SWAP1 POP JUMP JUMPDEST PUSH0 PUSH1 0x20 DUP3 ADD SWAP1 POP DUP2 DUP2 SUB PUSH0 DUP4 ADD MSTORE PUSH2 0xA88 DUP2 PUSH2 0xA4F JUMP JUMPDEST SWAP1 POP SWAP2 SWAP1 POP JUMP JUMPDEST PUSH32 0x4E6F6D696E65652061646472657373206D69736D617463680000000000000000 PUSH0 DUP3 ADD MSTORE POP JUMP JUMPDEST PUSH0 PUSH2 0xAC3 PUSH1 0x18 DUP4 PUSH2 0x763 JUMP JUMPDEST SWAP2 POP PUSH2 0xACE DUP3 PUSH2 0xA8F JUMP JUMPDEST PUSH1 0x20 DUP3 ADD SWAP1 POP SWAP2 SWAP1 POP JUMP JUMPDEST PUSH0 PUSH1 0x20 DUP3 ADD SWAP1 POP DUP2 DUP2 SUB PUSH0 DUP4 ADD MSTORE PUSH2 0xAF0 DUP2 PUSH2 0xAB7 JUMP JUMPDEST SWAP1 POP SWAP2 SWAP1 POP JUMP INVALID LOG2 PUSH5 0x6970667358 0x22 SLT KECCAK256 EXTCODESIZE PUSH4 0xCDD53EFF 0xB1 SWAP16 POP 0xD STATICCALL 0xC1 0x1E SWAP7 SELFDESTRUCT 0xE6 0xB9 SDIV 0x26 0xB0 GAS 0xBC SWAP2 PREVRANDAO 0x21 PUSH8 0x89162567661D6473 PUSH16 0x6C634300081A00330000000000000000 "
				},
				"gasEstimates": {
					"creation": {
						"codeDepositCost": "572200",
						"executionCost": "604",
						"totalCost": "572804"
					},
					"external": {
						"deposit(address)": "infinite",
						"inheritances(address)": "infinite",
						"ping()": "infinite",
						"pull(address)": "infinite"
					}
				},
				"methodIdentifiers": {
					"deposit(address)": "f340fa01",
					"inheritances(address)": "6122fed5",
					"ping()": "5c36b186",
					"pull(address)": "52d11238"
				}
			},
			"storageLayout": {
				"storage": [
					{
						"astId": 15,
						"contract": "contracts/InheriteContract.sol:Inherite",
						"label": "inheritances",
						"offset": 0,
						"slot": "0",
						"type": "t_mapping(t_address,t_struct(Inheritance)10_storage)"
					}
				],
				"types": {
					"t_address": {
						"encoding": "inplace",
						"label": "address",
						"numberOfBytes": "20"
					},
					"t_mapping(t_address,t_struct(Inheritance)10_storage)": {
						"encoding": "mapping",
						"key": "t_address",
						"label": "mapping(address => struct Inherite.Inheritance)",
						"numberOfBytes": "32",
						"value": "t_struct(Inheritance)10_storage"
					},
					"t_struct(Inheritance)10_storage": {
						"encoding": "inplace",
						"label": "struct Inherite.Inheritance",
						"members": [
							{
								"astId": 3,
								"contract": "contracts/InheriteContract.sol:Inherite",
								"label": "amount",
								"offset": 0,
								"slot": "0",
								"type": "t_uint256"
							},
							{
								"astId": 5,
								"contract": "contracts/InheriteContract.sol:Inherite",
								"label": "releaseTime",
								"offset": 0,
								"slot": "1",
								"type": "t_uint256"
							},
							{
								"astId": 7,
								"contract": "contracts/InheriteContract.sol:Inherite",
								"label": "lastVisited",
								"offset": 0,
								"slot": "2",
								"type": "t_uint256"
							},
							{
								"astId": 9,
								"contract": "contracts/InheriteContract.sol:Inherite",
								"label": "nominee",
								"offset": 0,
								"slot": "3",
								"type": "t_address"
							}
						],
						"numberOfBytes": "128"
					},
					"t_uint256": {
						"encoding": "inplace",
						"label": "uint256",
						"numberOfBytes": "32"
					}
				}
			},
			"userdoc": {
				"kind": "user",
				"methods": {},
				"version": 1
			}
		}
	}
}